:040000008A118428B5
:1000F80064008001840A04060319003404067D287C
:10010800FB01FC01FD0183132030840040308A117B
:100118007C208A1183018A119A2A83120313BC0155
:10012800061386138A11EC208A118A11EC208A1191
:100138008A11EC208A11EF3083160313850083128D
:10014800031306121030850008005430F000003008
:10015800F1000130F2000030F3008A1132218A11D7
:100168006930F0000030F1000130F2000030F30097
:100178008A1132218A116D30F0000030F10001300F
:10018800F2000030F3008A1132218A116530F00044
:100198000030F1000130F2000030F3008A11322102
:1001A8008A113A30F0000030F1000130F2000030DE
:1001B800F3008A1132218A11C030F0000030F100BA
:1001C8000030F2000030F3008A1132218A11080051
:1001D80083120313B801B9013908803AFF0081304E
:1001E8007F02031DF9282C303802031CFC28FD2847
:1001F800FF2829292929831203138616F930F000CC
:100208006400F00B04290829640083120313861282
:10021800F930F0006400F00B0E2912296400013057
:1002280083120313B8070318B90A0030B90739084D
:10023800803AFF0081307F02031D24292C303802C8
:10024800031C27292829FF2829290030F100D73045
:10025800F000F00B2D29F10B2D2908007108F5008D
:100268007008F4000430FF00750DF50CF40CFF0B5A
:10027800382974080F398312031387007218452927
:1002880049298312031387164C29831203138712F3
:100298000716071270080F39870072185429582951
:1002A8008312031387165B29831203138712071619
:1002B8000712FC307005F40000307105F500750870
:1002C8007404031D68296929782973087204031DB9
:1002D8006E296F2978290730F5007D30F400F40B7A
:1002E8007329F50B73297E294230F400F40B7A291F
:1002F80064007E2908005230F0000030F10001301F
:10030800F2000030F3008A1132218A116530F000C2
:100318000030F1000130F2000030F3008A11322180
:100328008A116D30F0000030F1000130F200003029
:10033800F3008A1132218A116130F0000030F10097
:100348000130F2000030F3008A1132218A1169303D
:10035800F0000030F1000130F2000030F3008A11A3
:1003680032218A116E30F0000030F1000130F200C5
:100378000030F3008A1132218A113A30F00000303F
:10038800F1000130F2000030F3008A1132218A11A5
:10039800C030F0000030F1000030F2000030F3000F
:1003A8008A1132218A11080083120313B801B90196
:1003B8003908803AFF0080307F02031DE529643048
:1003C8003802031CE829E929EB292F2A2F2A83124E
:1003D800031386163130F000F00BF029F329313081
:1003E800F000F00BF529F8293130F000F00BFA296C
:1003F800FD291030F000F00BFF296400831203136D
:1004080086123130F000F00B072A0A2A3130F0004A
:10041800F00B0C2A0F2A3130F000F00B112A142AA5
:100428001030F000F00B162A640001308312031319
:10043800B8070318B90A0030B9073908803AFF002D
:1004480080307F02031D2A2A64303802031C2D2ABB
:100458002E2AEB292F2A8230F100DD30F000F00B34
:10046800332AF10B332A382A08004130F700EE30DE
:10047800F600F60B3D2AF70B3D2A64000330831281
:1004880003138700071607120730F7007D30F600C0
:10049800F60B4C2AF70B4C2A831203130716071284
:1004A8004230F600F60B562A64008312031307162F
:1004B80007124230F600F60B5F2A640002308312FE
:1004C80003138700071607124230F600F60B6A2A54
:1004D80064002830F0000030F1000030F2000030F5
:1004E800F3008A1132218A110130F0000030F10046
:1004F8000030F2000030F3008A1132218A110630F0
:10050800F0000030F1000030F2000030F3008A11F2
:1005180032218A110E30F0000030F1000030F20074
:100528000030F3008A1132218A1108008312031760
:100538009E018316031387018312031387018A110F
:1005480039228A118A11A9208A1183160313860178
:10055800831203138601FB01FC0183120313BA0102
:10056800BB018A1191208A11B92A0730F9007D3020
:10057800F800F80BBD2AF90BBD2AFE3083160313C9
:100588008500860101308312031385000730F900C6
:100598007D30F800F80BCE2AF90BCE2A831203130C
:1005A800851CD72AD82A222BB401B5011D2B64300B
:1005B80034063504031DE12AE22A0B2B7C08803A15
:1005C800FF0080307F02031DEB2A05307B020318F1
:1005D800EE2AEF2AD12F3230F0000030F10001303E
:1005E800F2000030F3008A1132218A110130FB0732
:1005F8000318FC0A0030FC073230F8007B08203E64
:1006080084007808831380000B2BD12F0B2B033029
:10061800F9009730F800F80B0F2BF90B0F2B142B60
:10062800013083120313B4070318B50A0030B50765
:100638001D2B8518202B212BDB2A222B851D252BF2
:10064800262B702BB401B5016B2B643034063504AE
:10065800031D2F2B302B592B7C08803AFF0080304C
:100668007F02031D392B05307B0203183C2B3D2BE1
:10067800D12F3030F0000030F1000130F2000030AE
:10068800F3008A1132218A110130FB070318FC0A92
:100698000030FC073030F8007B08203E84007808E2
:1006A80083138000592BD12F592B0330F900973031
:1006B800F800F80B5D2BF90B5D2B622B01308312D0
:1006C8000313B4070318B50A0030B5076B2B851957
:1006D8006E2B6F2B292B702B851E732B742BD02B15
:1006E800B401B501CA2B643034063504031D7D2BD3
:1006F8007E2BB82B03307B067C04031D842B852BB3
:10070800872BD12FD12F7C087B04031D8C2B8D2B9D
:100718008F2BD12FD12F7C08803AFF0080307F02A9
:10072800031D982B05307B0203189B2B9C2BD12F84
:100738003830F0000030F1000130F2000030F300F2
:100748008A1132218A110130FB070318FC0A003094
:10075800FC073830F8007B08203E840078088313B3
:100768008000B82BD12FB82B0330F9009730F80050
:10077800F80BBC2BF90BBC2BC12B013083120313D4
:10078800B4070318B50A0030B507CA2B851ACD2B54
:10079800CE2B772BD02BD02B0730F9007D30F800EB
:1007A800F80BD42BF90BD42BEF30831603138500E9
:1007B800860110308312031385000730F9007D305D
:1007C800F800F80BE52BF90BE52B83120313851CB6
:1007D800EE2BEF2B392CB401B501342C64303406E0
:1007E8003504031DF82BF92B222C7C08803AFF00D6
:1007F80080307F02031D022C05307B020318052C74
:10080800062CD12F3330F0000030F1000130F20017
:100818000030F3008A1132218A110130FB070318D6
:10082800FC0A0030FC073330F8007B08203E8400C7
:10083800780883138000222CD12F222C0330F90052
:100848009730F800F80B262CF90B262C2B2C0130AE
:1008580083120313B4070318B50A0030B507342C04
:100868008518372C382CF22B392C851E3C2C3D2C26
:10087800982CB401B501932C643034063504031D5B
:10088800462C472C812C03307B067C04031D4D2C01
:100898004E2C502CD12FD12F7C087B04031D552CB6
:1008A800562C582CD12FD12F7C08803AFF0080304D
:1008B8007F02031D612C05307B020318642C652C14
:1008C800D12F3930F0000030F1000130F200003053
:1008D800F3008A1132218A110130FB070318FC0A40
:1008E8000030FC073930F8007B08203E8400780887
:1008F80083138000812CD12F812C0330F90097308D
:10090800F800F80B852CF90B852C8A2C0130831202
:100918000313B4070318B50A0030B507932C851ADA
:10092800962C972C402C982C851D9B2C9C2C572D55
:10093800B401B501522D643034063504031DA52CCD
:10094800A62C402D7C08803AFF0080307F02031DD2
:10095800AF2C05307B02031CB22CB32C402D831224
:100968000313B201B3013308803AFF0080307F02DD
:10097800031DC02C06303202031CC32CC42CC62C09
:10098800E72CE72C831203133208203E84008313DC
:100998000008F8003208263E8400780880000130FC
:1009A800B2070318B30A0030B3073308803AFF00D0
:1009B80080307F02031DE22C06303202031CE52C36
:1009C800E62CC62CE72C8A11D8218A118A11D82145
:1009D8008A1183120313BC010314BC0D0617861772
:1009E800B201B3013308803AFF0080307F02031D53
:1009F800FF2C06303202031C022D032D052D2D2D50
:100A08002D2D831203133208263E84008313000819
:100A1800D03EB800FF3003180030B9003808F8009D
:100A280032082C3E8400780880000130B207031891
:100A3800B30A0030B3073308803AFF0080307F02E2
:100A4800031D282D06303202031C2B2D2C2D052DBD
:100A58002D2D8A1553258A110130F0000030F10040
:100A68000030F2000030F3008A1132218A118A1115
:100A7800A9208A11AF2A402D0330F9009730F800D9
:100A8800F80B442DF90B442D492D01308312031323
:100A9800B4070318B50A0030B507522D8519552D2E
:100AA800562D9F2C572D582D0730F9007D30F80012
:100AB800F80B5C2DF90B5C2DFB30831603138500B6
:100AC800860104308312031385000730F9007D3056
:100AD800F800F80B6D2DF90B6D2D83120313851C8F
:100AE800762D772DC12DB401B501BC2D64303406A7
:100AF8003504031D802D812DAA2D7C08803AFF0026
:100B080080307F02031D8A2D05307B0203188D2D4E
:100B18008E2DD12F3130F0000030F1000130F2007D
:100B28000030F3008A1132218A110130FB070318C3
:100B3800FC0A0030FC073130F8007B08203E8400B6
:100B4800780883138000AA2DD12FAA2D0330F9002D
:100B58009730F800F80BAE2DF90BAE2DB32D013000
:100B680083120313B4070318B50A0030B507BC2D68
:100B78008518BF2DC02D7A2DC12D851DC42DC52DDD
:100B88005A2EB401B501552E643034063504031DC0
:100B9800CE2DCF2D432E03307B067C04031DD52D8F
:100BA800D62DDF2D7B08FF3EFB007C080318013E95
:100BB800FF3EFC00DF2D7C08803AFF0080307F027A
:100BC800031DE82D01307B02031CEB2DEC2DD12FEA
:100BD800FF30FB070318FC0AFF30FC070130F00068
:100BE8000030F1000030F2000030F3008A113221A9
:100BF8008A118A11A9208A11013083120313BA00BD
:100C08000030BB00072E7B08013EF8007C08031863
:100C1800013E003EF9003B08803AFA007908803A24
:100C28007A02031D192E78083A0203181C2E1D2E6D
:100C3800432E831203133A08203E840083130008CE
:100C4800F800F9017808B6007908B7003708F1010B
:100C5800F1073608F001F0070130F2000030F30028
:100C68008A1132218A11013083120313BA0703183B
:100C7800BB0A0030BB07072E432ED12F432E03306B
:100C8800F9009730F800F80B472EF90B472E4C2E39
:100C9800013083120313B4070318B50A0030B507EF
:100CA800552E8519582E592EC82D5A2E851E5D2E63
:100CB8005E2EBA2EB401B501B42E64303406350464
:100CC800031D672E682EA22E03307B067C04031DAD
:100CD8006E2E6F2E712ED12FD12F7C087B04031D11
:100CE800762E772E792ED12FD12F7C08803AFF00CF
:100CF80080307F02031D822E05307B020318852E6B
:100D0800862ED12F3730F0000030F1000130F2008C
:100D18000030F3008A1132218A110130FB070318D1
:100D2800FC0A0030FC073730F8007B08203E8400BE
:100D3800780883138000A22ED12FA22E0330F90049
:100D48009730F800F80BA62EF90BA62EAB2E013023
:100D580083120313B4070318B50A0030B507B42E7D
:100D6800851AB72EB82E612EBA2EBA2E0730F90082
:100D78007D30F800F80BBE2EF90BBE2EFF3083161F
:100D88000313850086018312031306160730F90042
:100D98007D30F800F80BCE2EF90BCE2E83120313FC
:100DA800051CD72ED82E222FB401B5011D2F643073
:100DB80034063504031DE12EE22E0B2F7C08803A01
:100DC800FF0080307F02031DEB2E05307B020318E5
:100DD800EE2EEF2ED12F3530F0000030F10001302B
:100DE800F2000030F3008A1132218A110130FB072A
:100DF8000318FC0A0030FC073530F8007B08203E59
:100E080084007808831380000B2FD12F0B2F033019
:100E1800F9009730F800F80B0F2FF90B0F2F142F4C
:100E2800013083120313B4070318B50A0030B5075D
:100E38001D2F0518202F212FDB2E222F051E252FD1
:100E4800262F812FB401B5017C2F64303406350478
:100E5800031D2F2F302F6A2F03307B067C04031DC0
:100E6800362F372F392FD12FD12F7C087B04031D24
:100E78003E2F3F2F412FD12FD12F7C08803AFF00E2
:100E880080307F02031D4A2F05307B0203184D2F47
:100E98004E2FD12F3630F0000030F1000130F20033
:100EA8000030F3008A1132218A110130FB07031840
:100EB800FC0A0030FC073630F8007B08203E84002E
:100EC8007808831380006A2FD12F6A2F0330F90026
:100ED8009730F800F80B6E2FF90B6E2F732F013037
:100EE80083120313B4070318B50A0030B5077C2F23
:100EF800051A7F2F802F292F812F051D842F852FDD
:100F0800CF2FB401B501CA2F643034063504031D50
:100F18008E2F8F2FB82F7C08803AFF0080307F02F9
:100F2800031D982F05307B0203189B2F9C2FD12F70
:100F38003430F0000030F1000130F2000030F300EE
:100F48008A1132218A110130FB070318FC0A00308C
:100F5800FC073430F8007B08203E840078088313AF
:100F68008000B82FD12FB82F0330F9009730F80040
:100F7800F80BBC2FF90BBC2FC12F013083120313C0
:100F8800B4070318B50A0030B507CA2F0519CD2FC5
:100F9800CE2F882FCF2FD12FD12F02307B067C0464
:100FA800031DD72FD82FF22F2D30F0000030F1007D
:100FB8000130F2000030F3008A1132218A11013029
:100FC800FB070318FC0A0030FC072D30F8007B08EB
:100FD800203E8400780883138000F22F0730F90040
:100FE8007D30F800F80BF62FF90BF62F8312031358
:080FF8000612B92A8A11002833
:101AA600EF308316031385008312031306121030DA
:101AB6008500851D5F2D602DEA2EB401B501E32E4C
:101AC600643034063504031D692D6A2DD12E6B2D25
:101AD6008A11D8218A158A11D8218A1583120313EF
:101AE6003C08023A031D782D792D7F2DBC01031485
:101AF600BC0D06178617EA2E3C08013A031D842DF5
:101B0600852DD12E0230F6007608BC00061386130A
:101B16000130F0000030F1000030F2000030F30038
:101B26008A1132218A152030F0000030F100013090
:101B3600F2000030F3008A1132218A152030F000BD
:101B46000030F1000130F2000030F3008A1132213A
:101B56008A15013083120313B2000030B300330834
:101B6600803AFF0080307F02031DBB2D0630320213
:101B7600031CBE2DBF2DC12DF12DF12D8312031394
:101B86003208263E840083130008F600F701760823
:101B9600B4007708B5003508F101F1073408F00103
:101BA600F0070130F2000030F3008A1132218A1565
:101BB600013083120313B2070318B30A0030B307C8
:101BC6003308803AFF0080307F02031DEC2D06307B
:101BD6003202031CEF2DF02DC12DF12DC030F00087
:101BE6000030F1000030F2000030F3008A1132219B
:101BF6008A153E30F0000030F1000130F20000306E
:101C0600F3008A1132218A152030F0000030F100ED
:101C16000130F2000030F3008A1132218A150130BA
:101C260083120313B2000030B3003308803AFF007A
:101C360080307F02031D212E06303202031C242E23
:101C4600252E272E582E582E8312031332082C3E8B
:101C5600840083130008303EB400003003180130BE
:101C6600B5003508F101F1073408F001F00701303D
:101C7600F2000030F3008A1132218A1501308312F6
:101C86000313B2070318B30A0030B3073308803AC8
:101C9600FF0080307F02031D522E06303202031CE5
:101CA600552E562E272E582E582E0730F7007D30EB
:101CB600F600F60B5C2EF70B5C2E83120313851DC4
:101CC600652E662E8A2EB401B501842E6430340644
:101CD6003504031D6F2E702E722E6B2D6B2D033067
:101CE600F7009730F600F60B762EF70B762E7B2E46
:101CF600013083120313B4070318B50A0030B50781
:101D0600842E8519872E882E692E8A2E8A2EFB30E0
:101D1600831603138500831203130612043085000D
:101D26000730F7007D30F600F60B972EF70B972E4F
:101D360083120313851DA02EA12EC52EB401B50155
:101D4600BF2E643034063504031DAA2EAB2EAD2EED
:101D5600FF2FFF2F0330F7009730F600F60BB12E5A
:101D6600F70BB12EB62E013083120313B4070318F6
:101D7600B50A0030B507BF2E8519C22EC32EA42E74
:101D8600C52EC52EEF308316031385008312031369
:101D9600061210308500582ED12ED12E0330F700B2
:101DA6009730F600F60BD52EF70BD52EDA2E01302E
:101DB60083120313B4070318B50A0030B507E32EE0
:101DC6008519E62EE72E632DEA2EEA2EEA2E01303D
:101DD600F0000030F1000030F2000030F3008A110C
:101DE60032218A158A117F218A1583120313AD08C1
:101DF600031DFE2EFF2E102FAE08031D032F042FEA
:101E0600102FB008031D082F092F102FB108031D2E
:101E16000D2F0E2F102FFF2FFF2F3108F6007608FB
:101E2600BF003F08031D182F1F2F0130BF023F08B8
:101E3600F6007608B100672F0930F6007608BF0075
:101E46003F08F6007608B1003008F6007608BE00B6
:101E56003E08031D2F2F362F0130BE023E08F60026
:101E66007608B000672F0530F6007608BE003E08FB
:101E7600F6007608B0002E08F6007608BD003D088C
:101E8600031D462F4D2F0130BD023D08F600760892
:101E9600AE00672F0930F6007608BD003D08F60053
:101EA6007608AE002D08F6007608FD007D08031DB5
:101EB6005D2F672F0130FD027D08F6007608AD0024
:101EC600672F672F672F672F2D08303EF60076089D
:101ED600FD007D08F600F7017608F0007708F100AE
:101EE6000130F2000030F3008A1132218A15831284
:101EF60003132E08303EF6007608FD007D08F60036
:101F0600F7017608F0007708F1000130F2000030A2
:101F1600F3008A1132218A152D30F0000030F100CD
:101F26000130F2000030F3008A1132218A15831243
:101F360003133008303EF6007608FD007D08F600F3
:101F4600F7017608F0007708F1000130F200003062
:101F5600F3008A1132218A15831203133108303EA9
:101F6600F6007608FD007D08F600F7017608F00019
:101F76007708F1000130F2000030F3008A113221B7
:101F86008A15C330F700CD30F600F60BC82FF70BD5
:101F9600C82FC330F700CD30F600F60BD02FF70B65
:101FA600D02FC330F700CD30F600F60BD82FF70B45
:101FB600D82FC330F700CD30F600F60BE02FF70B25
:101FC600E02FC330F700CD30F600F60BE82FF70B05
:101FD600E82FC330F700CD30F600F60BF02FF70BE5
:101FE600F02F7830F7007930F600F60BF82FF70B64
:0A1FF600F82FFD2F532DFF2F0800D8
:00000001FF
